{
  "_format": "hh-sol-artifact-1",
  "contractName": "AgriVerify",
  "sourceName": "contracts/AgriVerify.sol",
  "abi": [
    {
      "anonymous": false,
      "inputs": [
        {
          "indexed": true,
          "internalType": "uint256",
          "name": "cropId",
          "type": "uint256"
        },
        {
          "indexed": true,
          "internalType": "address",
          "name": "farmer",
          "type": "address"
        },
        {
          "indexed": false,
          "internalType": "uint256",
          "name": "timestamp",
          "type": "uint256"
        }
      ],
      "name": "CertificationRevoked",
      "type": "event"
    },
    {
      "anonymous": false,
      "inputs": [
        {
          "indexed": true,
          "internalType": "uint256",
          "name": "cropId",
          "type": "uint256"
        },
        {
          "indexed": false,
          "internalType": "string",
          "name": "name",
          "type": "string"
        },
        {
          "indexed": true,
          "internalType": "address",
          "name": "farmer",
          "type": "address"
        },
        {
          "indexed": false,
          "internalType": "uint256",
          "name": "timestamp",
          "type": "uint256"
        }
      ],
      "name": "CropCertified",
      "type": "event"
    },
    {
      "inputs": [
        {
          "internalType": "uint256",
          "name": "",
          "type": "uint256"
        }
      ],
      "name": "certifiedCrops",
      "outputs": [
        {
          "internalType": "uint256",
          "name": "cropId",
          "type": "uint256"
        },
        {
          "internalType": "string",
          "name": "name",
          "type": "string"
        },
        {
          "internalType": "string",
          "name": "location",
          "type": "string"
        },
        {
          "internalType": "address",
          "name": "farmer",
          "type": "address"
        },
        {
          "internalType": "uint256",
          "name": "timestamp",
          "type": "uint256"
        },
        {
          "internalType": "bool",
          "name": "isCertified",
          "type": "bool"
        }
      ],
      "stateMutability": "view",
      "type": "function"
    },
    {
      "inputs": [
        {
          "internalType": "string",
          "name": "_name",
          "type": "string"
        },
        {
          "internalType": "string",
          "name": "_location",
          "type": "string"
        }
      ],
      "name": "certifyCrop",
      "outputs": [],
      "stateMutability": "nonpayable",
      "type": "function"
    },
    {
      "inputs": [],
      "name": "cropCount",
      "outputs": [
        {
          "internalType": "uint256",
          "name": "",
          "type": "uint256"
        }
      ],
      "stateMutability": "view",
      "type": "function"
    },
    {
      "inputs": [
        {
          "internalType": "address",
          "name": "",
          "type": "address"
        },
        {
          "internalType": "uint256",
          "name": "",
          "type": "uint256"
        }
      ],
      "name": "farmerCrops",
      "outputs": [
        {
          "internalType": "uint256",
          "name": "",
          "type": "uint256"
        }
      ],
      "stateMutability": "view",
      "type": "function"
    },
    {
      "inputs": [
        {
          "internalType": "uint256",
          "name": "_cropId",
          "type": "uint256"
        }
      ],
      "name": "getCropDetails",
      "outputs": [
        {
          "internalType": "string",
          "name": "",
          "type": "string"
        },
        {
          "internalType": "string",
          "name": "",
          "type": "string"
        },
        {
          "internalType": "address",
          "name": "",
          "type": "address"
        },
        {
          "internalType": "uint256",
          "name": "",
          "type": "uint256"
        },
        {
          "internalType": "bool",
          "name": "",
          "type": "bool"
        }
      ],
      "stateMutability": "view",
      "type": "function"
    },
    {
      "inputs": [
        {
          "internalType": "address",
          "name": "_farmer",
          "type": "address"
        }
      ],
      "name": "getFarmerCrops",
      "outputs": [
        {
          "internalType": "uint256[]",
          "name": "",
          "type": "uint256[]"
        }
      ],
      "stateMutability": "view",
      "type": "function"
    },
    {
      "inputs": [
        {
          "internalType": "uint256",
          "name": "_cropId",
          "type": "uint256"
        }
      ],
      "name": "revokeCertification",
      "outputs": [],
      "stateMutability": "nonpayable",
      "type": "function"
    }
  ],
  "bytecode": "0x6080604052348015600f57600080fd5b5061138b8061001f6000396000f3fe608060405234801561001057600080fd5b506004361061007c5760003560e01c80632f5fce6c1161005b5780632f5fce6c14610115578063b7f9eaa614610131578063dfd55a2c14610166578063e6be4bc9146101845761007c565b806264fc9e1461008157806312b79636146100b157806320b6bac1146100e1575b600080fd5b61009b600480360381019061009691906109c1565b6101a0565b6040516100a89190610ab6565b60405180910390f35b6100cb60048036038101906100c69190610b04565b610237565b6040516100d89190610b53565b60405180910390f35b6100fb60048036038101906100f69190610b6e565b610268565b60405161010c959493929190610c55565b60405180910390f35b61012f600480360381019061012a9190610b6e565b610466565b005b61014b60048036038101906101469190610b6e565b6105ed565b60405161015d96959493929190610cb6565b60405180910390f35b61016e610766565b60405161017b9190610b53565b60405180910390f35b61019e60048036038101906101999190610e5a565b61076c565b005b6060600160008373ffffffffffffffffffffffffffffffffffffffff1673ffffffffffffffffffffffffffffffffffffffff16815260200190815260200160002080548060200260200160405190810160405280929190818152602001828054801561022b57602002820191906000526020600020905b815481526020019060010190808311610217575b50505050509050919050565b6001602052816000526040600020818154811061025357600080fd5b90600052602060002001600091509150505481565b6060806000806000806000808881526020019081526020016000206040518060c0016040529081600082015481526020016001820180546102a890610f01565b80601f01602080910402602001604051908101604052809291908181526020018280546102d490610f01565b80156103215780601f106102f657610100808354040283529160200191610321565b820191906000526020600020905b81548152906001019060200180831161030457829003601f168201915b5050505050815260200160028201805461033a90610f01565b80601f016020809104026020016040519081016040528092919081815260200182805461036690610f01565b80156103b35780601f10610388576101008083540402835291602001916103b3565b820191906000526020600020905b81548152906001019060200180831161039657829003601f168201915b505050505081526020016003820160009054906101000a900473ffffffffffffffffffffffffffffffffffffffff1673ffffffffffffffffffffffffffffffffffffffff1673ffffffffffffffffffffffffffffffffffffffff168152602001600482015481526020016005820160009054906101000a900460ff161515151581525050905080602001518160400151826060015183608001518460a00151955095509550955095505091939590929450565b803373ffffffffffffffffffffffffffffffffffffffff1660008083815260200190815260200160002060030160009054906101000a900473ffffffffffffffffffffffffffffffffffffffff1673ffffffffffffffffffffffffffffffffffffffff161461050a576040517f08c379a000000000000000000000000000000000000000000000000000000000815260040161050190610fa4565b60405180910390fd5b60008083815260200190815260200160002060050160009054906101000a900460ff1661056c576040517f08c379a000000000000000000000000000000000000000000000000000000000815260040161056390611010565b60405180910390fd5b600080600084815260200190815260200160002060050160006101000a81548160ff0219169083151502179055503373ffffffffffffffffffffffffffffffffffffffff16827f014ca789a7e6a2b8bda52f2bc401bfc8c6dc1d7701d68785fc2a17f8ef05f4b6426040516105e19190610b53565b60405180910390a35050565b600060205280600052604060002060009150905080600001549080600101805461061690610f01565b80601f016020809104026020016040519081016040528092919081815260200182805461064290610f01565b801561068f5780601f106106645761010080835404028352916020019161068f565b820191906000526020600020905b81548152906001019060200180831161067257829003601f168201915b5050505050908060020180546106a490610f01565b80601f01602080910402602001604051908101604052809291908181526020018280546106d090610f01565b801561071d5780601f106106f25761010080835404028352916020019161071d565b820191906000526020600020905b81548152906001019060200180831161070057829003601f168201915b5050505050908060030160009054906101000a900473ffffffffffffffffffffffffffffffffffffffff16908060040154908060050160009054906101000a900460ff16905086565b60025481565b6002600081548092919061077f9061105f565b919050555060006040518060c0016040528060025481526020018481526020018381526020013373ffffffffffffffffffffffffffffffffffffffff1681526020014281526020016001151581525090508060008060025481526020019081526020016000206000820151816000015560208201518160010190816108049190611253565b50604082015181600201908161081a9190611253565b5060608201518160030160006101000a81548173ffffffffffffffffffffffffffffffffffffffff021916908373ffffffffffffffffffffffffffffffffffffffff1602179055506080820151816004015560a08201518160050160006101000a81548160ff021916908315150217905550905050600160003373ffffffffffffffffffffffffffffffffffffffff1673ffffffffffffffffffffffffffffffffffffffff16815260200190815260200160002060025490806001815401808255809150506001900390600052602060002001600090919091909150553373ffffffffffffffffffffffffffffffffffffffff166002547feb3548bb3a7b4af4a35652fd9bb2ef36dbdc8e9472aa8c66f7a2220f940fe8458542604051610942929190611325565b60405180910390a3505050565b6000604051905090565b600080fd5b600080fd5b600073ffffffffffffffffffffffffffffffffffffffff82169050919050565b600061098e82610963565b9050919050565b61099e81610983565b81146109a957600080fd5b50565b6000813590506109bb81610995565b92915050565b6000602082840312156109d7576109d6610959565b5b60006109e5848285016109ac565b91505092915050565b600081519050919050565b600082825260208201905092915050565b6000819050602082019050919050565b6000819050919050565b610a2d81610a1a565b82525050565b6000610a3f8383610a24565b60208301905092915050565b6000602082019050919050565b6000610a63826109ee565b610a6d81856109f9565b9350610a7883610a0a565b8060005b83811015610aa9578151610a908882610a33565b9750610a9b83610a4b565b925050600181019050610a7c565b5085935050505092915050565b60006020820190508181036000830152610ad08184610a58565b905092915050565b610ae181610a1a565b8114610aec57600080fd5b50565b600081359050610afe81610ad8565b92915050565b60008060408385031215610b1b57610b1a610959565b5b6000610b29858286016109ac565b9250506020610b3a85828601610aef565b9150509250929050565b610b4d81610a1a565b82525050565b6000602082019050610b686000830184610b44565b92915050565b600060208284031215610b8457610b83610959565b5b6000610b9284828501610aef565b91505092915050565b600081519050919050565b600082825260208201905092915050565b60005b83811015610bd5578082015181840152602081019050610bba565b60008484015250505050565b6000601f19601f8301169050919050565b6000610bfd82610b9b565b610c078185610ba6565b9350610c17818560208601610bb7565b610c2081610be1565b840191505092915050565b610c3481610983565b82525050565b60008115159050919050565b610c4f81610c3a565b82525050565b600060a0820190508181036000830152610c6f8188610bf2565b90508181036020830152610c838187610bf2565b9050610c926040830186610c2b565b610c9f6060830185610b44565b610cac6080830184610c46565b9695505050505050565b600060c082019050610ccb6000830189610b44565b8181036020830152610cdd8188610bf2565b90508181036040830152610cf18187610bf2565b9050610d006060830186610c2b565b610d0d6080830185610b44565b610d1a60a0830184610c46565b979650505050505050565b600080fd5b600080fd5b7f4e487b7100000000000000000000000000000000000000000000000000000000600052604160045260246000fd5b610d6782610be1565b810181811067ffffffffffffffff82111715610d8657610d85610d2f565b5b80604052505050565b6000610d9961094f565b9050610da58282610d5e565b919050565b600067ffffffffffffffff821115610dc557610dc4610d2f565b5b610dce82610be1565b9050602081019050919050565b82818337600083830152505050565b6000610dfd610df884610daa565b610d8f565b905082815260208101848484011115610e1957610e18610d2a565b5b610e24848285610ddb565b509392505050565b600082601f830112610e4157610e40610d25565b5b8135610e51848260208601610dea565b91505092915050565b60008060408385031215610e7157610e70610959565b5b600083013567ffffffffffffffff811115610e8f57610e8e61095e565b5b610e9b85828601610e2c565b925050602083013567ffffffffffffffff811115610ebc57610ebb61095e565b5b610ec885828601610e2c565b9150509250929050565b7f4e487b7100000000000000000000000000000000000000000000000000000000600052602260045260246000fd5b60006002820490506001821680610f1957607f821691505b602082108103610f2c57610f2b610ed2565b5b50919050565b7f4f6e6c7920746865206661726d65722077686f2063657274696669656420746860008201527f69732063726f702063616e207265766f6b652069740000000000000000000000602082015250565b6000610f8e603583610ba6565b9150610f9982610f32565b604082019050919050565b60006020820190508181036000830152610fbd81610f81565b9050919050565b7f546869732063726f70206973206e6f7420636572746966696564000000000000600082015250565b6000610ffa601a83610ba6565b915061100582610fc4565b602082019050919050565b6000602082019050818103600083015261102981610fed565b9050919050565b7f4e487b7100000000000000000000000000000000000000000000000000000000600052601160045260246000fd5b600061106a82610a1a565b91507fffffffffffffffffffffffffffffffffffffffffffffffffffffffffffffffff820361109c5761109b611030565b5b600182019050919050565b60008190508160005260206000209050919050565b60006020601f8301049050919050565b600082821b905092915050565b6000600883026111097fffffffffffffffffffffffffffffffffffffffffffffffffffffffffffffffff826110cc565b61111386836110cc565b95508019841693508086168417925050509392505050565b6000819050919050565b600061115061114b61114684610a1a565b61112b565b610a1a565b9050919050565b6000819050919050565b61116a83611135565b61117e61117682611157565b8484546110d9565b825550505050565b600090565b611193611186565b61119e818484611161565b505050565b5b818110156111c2576111b760008261118b565b6001810190506111a4565b5050565b601f821115611207576111d8816110a7565b6111e1846110bc565b810160208510156111f0578190505b6112046111fc856110bc565b8301826111a3565b50505b505050565b600082821c905092915050565b600061122a6000198460080261120c565b1980831691505092915050565b60006112438383611219565b9150826002028217905092915050565b61125c82610b9b565b67ffffffffffffffff81111561127557611274610d2f565b5b61127f8254610f01565b61128a8282856111c6565b600060209050601f8311600181146112bd57600084156112ab578287015190505b6112b58582611237565b86555061131d565b601f1984166112cb866110a7565b60005b828110156112f3578489015182556001820191506020850194506020810190506112ce565b86831015611310578489015161130c601f891682611219565b8355505b6001600288020188555050505b505050505050565b6000604082019050818103600083015261133f8185610bf2565b905061134e6020830184610b44565b939250505056fea264697066735822122001319d5da1a2cc26404882e6aee1337f4279eee322f35306c15bcf8e194e3f2864736f6c634300081b0033",
  "linkReferences": {},
  "deployedLinkReferences": {}
}